{
  "_format": "hh-sol-artifact-1",
  "contractName": "MyEpicNFT",
  "sourceName": "contracts/MyEpicNFT.sol",
  "abi": [
    {
      "inputs": [],
      "stateMutability": "nonpayable",
      "type": "constructor"
    },
    {
      "anonymous": false,
      "inputs": [
        {
          "indexed": true,
          "internalType": "address",
          "name": "owner",
          "type": "address"
        },
        {
          "indexed": true,
          "internalType": "address",
          "name": "approved",
          "type": "address"
        },
        {
          "indexed": true,
          "internalType": "uint256",
          "name": "tokenId",
          "type": "uint256"
        }
      ],
      "name": "Approval",
      "type": "event"
    },
    {
      "anonymous": false,
      "inputs": [
        {
          "indexed": true,
          "internalType": "address",
          "name": "owner",
          "type": "address"
        },
        {
          "indexed": true,
          "internalType": "address",
          "name": "operator",
          "type": "address"
        },
        {
          "indexed": false,
          "internalType": "bool",
          "name": "approved",
          "type": "bool"
        }
      ],
      "name": "ApprovalForAll",
      "type": "event"
    },
    {
      "anonymous": false,
      "inputs": [
        {
          "indexed": false,
          "internalType": "address",
          "name": "sender",
          "type": "address"
        },
        {
          "indexed": false,
          "internalType": "uint256",
          "name": "tokenId",
          "type": "uint256"
        }
      ],
      "name": "NewEpicNFTMinted",
      "type": "event"
    },
    {
      "anonymous": false,
      "inputs": [
        {
          "indexed": true,
          "internalType": "address",
          "name": "from",
          "type": "address"
        },
        {
          "indexed": true,
          "internalType": "address",
          "name": "to",
          "type": "address"
        },
        {
          "indexed": true,
          "internalType": "uint256",
          "name": "tokenId",
          "type": "uint256"
        }
      ],
      "name": "Transfer",
      "type": "event"
    },
    {
      "inputs": [
        {
          "internalType": "address",
          "name": "to",
          "type": "address"
        },
        {
          "internalType": "uint256",
          "name": "tokenId",
          "type": "uint256"
        }
      ],
      "name": "approve",
      "outputs": [],
      "stateMutability": "nonpayable",
      "type": "function"
    },
    {
      "inputs": [
        {
          "internalType": "address",
          "name": "owner",
          "type": "address"
        }
      ],
      "name": "balanceOf",
      "outputs": [
        {
          "internalType": "uint256",
          "name": "",
          "type": "uint256"
        }
      ],
      "stateMutability": "view",
      "type": "function"
    },
    {
      "inputs": [
        {
          "internalType": "uint256",
          "name": "tokenId",
          "type": "uint256"
        }
      ],
      "name": "getApproved",
      "outputs": [
        {
          "internalType": "address",
          "name": "",
          "type": "address"
        }
      ],
      "stateMutability": "view",
      "type": "function"
    },
    {
      "inputs": [],
      "name": "getMaxSupply",
      "outputs": [
        {
          "internalType": "uint256",
          "name": "",
          "type": "uint256"
        }
      ],
      "stateMutability": "view",
      "type": "function"
    },
    {
      "inputs": [],
      "name": "getTotalNFTsMintedSoFar",
      "outputs": [
        {
          "internalType": "uint256",
          "name": "",
          "type": "uint256"
        }
      ],
      "stateMutability": "view",
      "type": "function"
    },
    {
      "inputs": [
        {
          "internalType": "address",
          "name": "owner",
          "type": "address"
        },
        {
          "internalType": "address",
          "name": "operator",
          "type": "address"
        }
      ],
      "name": "isApprovedForAll",
      "outputs": [
        {
          "internalType": "bool",
          "name": "",
          "type": "bool"
        }
      ],
      "stateMutability": "view",
      "type": "function"
    },
    {
      "inputs": [],
      "name": "makeAnEpicNFT",
      "outputs": [],
      "stateMutability": "nonpayable",
      "type": "function"
    },
    {
      "inputs": [],
      "name": "name",
      "outputs": [
        {
          "internalType": "string",
          "name": "",
          "type": "string"
        }
      ],
      "stateMutability": "view",
      "type": "function"
    },
    {
      "inputs": [
        {
          "internalType": "uint256",
          "name": "tokenId",
          "type": "uint256"
        }
      ],
      "name": "ownerOf",
      "outputs": [
        {
          "internalType": "address",
          "name": "",
          "type": "address"
        }
      ],
      "stateMutability": "view",
      "type": "function"
    },
    {
      "inputs": [
        {
          "internalType": "uint256",
          "name": "tokenId",
          "type": "uint256"
        }
      ],
      "name": "pickRandomFirstWord",
      "outputs": [
        {
          "internalType": "string",
          "name": "",
          "type": "string"
        }
      ],
      "stateMutability": "view",
      "type": "function"
    },
    {
      "inputs": [
        {
          "internalType": "uint256",
          "name": "tokenId",
          "type": "uint256"
        }
      ],
      "name": "pickRandomSecondWord",
      "outputs": [
        {
          "internalType": "string",
          "name": "",
          "type": "string"
        }
      ],
      "stateMutability": "view",
      "type": "function"
    },
    {
      "inputs": [
        {
          "internalType": "uint256",
          "name": "tokenId",
          "type": "uint256"
        }
      ],
      "name": "pickRandomThirdWord",
      "outputs": [
        {
          "internalType": "string",
          "name": "",
          "type": "string"
        }
      ],
      "stateMutability": "view",
      "type": "function"
    },
    {
      "inputs": [
        {
          "internalType": "address",
          "name": "from",
          "type": "address"
        },
        {
          "internalType": "address",
          "name": "to",
          "type": "address"
        },
        {
          "internalType": "uint256",
          "name": "tokenId",
          "type": "uint256"
        }
      ],
      "name": "safeTransferFrom",
      "outputs": [],
      "stateMutability": "nonpayable",
      "type": "function"
    },
    {
      "inputs": [
        {
          "internalType": "address",
          "name": "from",
          "type": "address"
        },
        {
          "internalType": "address",
          "name": "to",
          "type": "address"
        },
        {
          "internalType": "uint256",
          "name": "tokenId",
          "type": "uint256"
        },
        {
          "internalType": "bytes",
          "name": "data",
          "type": "bytes"
        }
      ],
      "name": "safeTransferFrom",
      "outputs": [],
      "stateMutability": "nonpayable",
      "type": "function"
    },
    {
      "inputs": [
        {
          "internalType": "address",
          "name": "operator",
          "type": "address"
        },
        {
          "internalType": "bool",
          "name": "approved",
          "type": "bool"
        }
      ],
      "name": "setApprovalForAll",
      "outputs": [],
      "stateMutability": "nonpayable",
      "type": "function"
    },
    {
      "inputs": [
        {
          "internalType": "bytes4",
          "name": "interfaceId",
          "type": "bytes4"
        }
      ],
      "name": "supportsInterface",
      "outputs": [
        {
          "internalType": "bool",
          "name": "",
          "type": "bool"
        }
      ],
      "stateMutability": "view",
      "type": "function"
    },
    {
      "inputs": [],
      "name": "symbol",
      "outputs": [
        {
          "internalType": "string",
          "name": "",
          "type": "string"
        }
      ],
      "stateMutability": "view",
      "type": "function"
    },
    {
      "inputs": [
        {
          "internalType": "uint256",
          "name": "tokenId",
          "type": "uint256"
        }
      ],
      "name": "tokenURI",
      "outputs": [
        {
          "internalType": "string",
          "name": "",
          "type": "string"
        }
      ],
      "stateMutability": "view",
      "type": "function"
    },
    {
      "inputs": [
        {
          "internalType": "address",
          "name": "from",
          "type": "address"
        },
        {
          "internalType": "address",
          "name": "to",
          "type": "address"
        },
        {
          "internalType": "uint256",
          "name": "tokenId",
          "type": "uint256"
        }
      ],
      "name": "transferFrom",
      "outputs": [],
      "stateMutability": "nonpayable",
      "type": "function"
    }
  ],
  "bytecode": "0x6080604052600360075560405180610160016040528061012f81526020016200419d61012f9139600990805190602001906200003d92919062000683565b506040518060c001604052806040518060400160405280600181526020017f310000000000000000000000000000000000000000000000000000000000000081525081526020016040518060400160405280600181526020017f320000000000000000000000000000000000000000000000000000000000000081525081526020016040518060400160405280600181526020017f330000000000000000000000000000000000000000000000000000000000000081525081526020016040518060400160405280600181526020017f340000000000000000000000000000000000000000000000000000000000000081525081526020016040518060400160405280600181526020017f350000000000000000000000000000000000000000000000000000000000000081525081526020016040518060400160405280600181526020017f3600000000000000000000000000000000000000000000000000000000000000815250815250600a906006620001bb92919062000714565b506040518060c001604052806040518060400160405280600181526020017f610000000000000000000000000000000000000000000000000000000000000081525081526020016040518060400160405280600181526020017f620000000000000000000000000000000000000000000000000000000000000081525081526020016040518060400160405280600181526020017f630000000000000000000000000000000000000000000000000000000000000081525081526020016040518060400160405280600181526020017f640000000000000000000000000000000000000000000000000000000000000081525081526020016040518060400160405280600181526020017f650000000000000000000000000000000000000000000000000000000000000081525081526020016040518060400160405280600181526020017f6600000000000000000000000000000000000000000000000000000000000000815250815250600b9060066200033992919062000714565b506040518060c001604052806040518060400160405280600181526020017f210000000000000000000000000000000000000000000000000000000000000081525081526020016040518060400160405280600181526020017f400000000000000000000000000000000000000000000000000000000000000081525081526020016040518060400160405280600181526020017f230000000000000000000000000000000000000000000000000000000000000081525081526020016040518060400160405280600181526020017f230000000000000000000000000000000000000000000000000000000000000081525081526020016040518060400160405280600181526020017f240000000000000000000000000000000000000000000000000000000000000081525081526020016040518060400160405280600181526020017f2500000000000000000000000000000000000000000000000000000000000000815250815250600c906006620004b792919062000714565b50348015620004c557600080fd5b506040518060400160405280600781526020017f54696d654e4654000000000000000000000000000000000000000000000000008152506040518060400160405280600481526020017f54494d450000000000000000000000000000000000000000000000000000000081525081600090805190602001906200054a92919062000683565b5080600190805190602001906200056392919062000683565b505050620005b16040518060400160405280601e81526020017f54686973206973206d79204e465420636f6e74726163742e20576f6168210000815250620005b760201b620010f11760201c565b62000935565b6200065781604051602401620005ce919062000849565b6040516020818303038152906040527f41304fac000000000000000000000000000000000000000000000000000000007bffffffffffffffffffffffffffffffffffffffffffffffffffffffff19166020820180517bffffffffffffffffffffffffffffffffffffffffffffffffffffffff83818316178352505050506200065a60201b60201c565b50565b60008151905060006a636f6e736f6c652e6c6f679050602083016000808483855afa5050505050565b8280546200069190620008bf565b90600052602060002090601f016020900481019282620006b5576000855562000701565b82601f10620006d057805160ff191683800117855562000701565b8280016001018555821562000701579182015b8281111562000700578251825591602001919060010190620006e3565b5b5090506200071091906200077b565b5090565b82805482825590600052602060002090810192821562000768579160200282015b82811115620007675782518290805190602001906200075692919062000683565b509160200191906001019062000735565b5b5090506200077791906200079a565b5090565b5b80821115620007965760008160009055506001016200077c565b5090565b5b80821115620007be5760008181620007b49190620007c2565b506001016200079b565b5090565b508054620007d090620008bf565b6000825580601f10620007e4575062000805565b601f0160209004906000526020600020908101906200080491906200077b565b5b50565b600062000815826200086d565b62000821818562000878565b93506200083381856020860162000889565b6200083e8162000924565b840191505092915050565b6000602082019050818103600083015262000865818462000808565b905092915050565b600081519050919050565b600082825260208201905092915050565b60005b83811015620008a95780820151818401526020810190506200088c565b83811115620008b9576000848401525b50505050565b60006002820490506001821680620008d857607f821691505b60208210811415620008ef57620008ee620008f5565b5b50919050565b7f4e487b7100000000000000000000000000000000000000000000000000000000600052602260045260246000fd5b6000601f19601f8301169050919050565b61385880620009456000396000f3fe608060405234801561001057600080fd5b50600436106101215760003560e01c80636352211e116100ad578063b88d4fde11610071578063b88d4fde1461032e578063c575757a1461034a578063c87b56dd1461037a578063de9d132f146103aa578063e985e9c5146103b457610121565b80636352211e1461026457806370a082311461029457806395d89b41146102c4578063a22cb465146102e2578063b187301f146102fe57610121565b8063095ea7b3116100f4578063095ea7b3146101c257806323b872dd146101de5780632de38d68146101fa57806342842e0e1461022a5780634c0f38c21461024657610121565b806301ffc9a714610126578063060475901461015657806306fdde0314610174578063081812fc14610192575b600080fd5b610140600480360381019061013b91906124e0565b6103e4565b60405161014d9190612bba565b60405180910390f35b61015e6104c6565b60405161016b9190612dd5565b60405180910390f35b61017c6104d7565b6040516101899190612bd5565b60405180910390f35b6101ac60048036038101906101a79190612532565b610569565b6040516101b99190612b2a565b60405180910390f35b6101dc60048036038101906101d791906124a4565b6105af565b005b6101f860048036038101906101f3919061239e565b6106c7565b005b610214600480360381019061020f9190612532565b610727565b6040516102219190612bd5565b60405180910390f35b610244600480360381019061023f919061239e565b610845565b005b61024e610865565b60405161025b9190612dd5565b60405180910390f35b61027e60048036038101906102799190612532565b61086f565b60405161028b9190612b2a565b60405180910390f35b6102ae60048036038101906102a99190612339565b610921565b6040516102bb9190612dd5565b60405180910390f35b6102cc6109d9565b6040516102d99190612bd5565b60405180910390f35b6102fc60048036038101906102f79190612468565b610a6b565b005b61031860048036038101906103139190612532565b610a81565b6040516103259190612bd5565b60405180910390f35b610348600480360381019061034391906123ed565b610b9f565b005b610364600480360381019061035f9190612532565b610c01565b6040516103719190612bd5565b60405180910390f35b610394600480360381019061038f9190612532565b610d1f565b6040516103a19190612bd5565b60405180910390f35b6103b2610e32565b005b6103ce60048036038101906103c99190612362565b61105d565b6040516103db9190612bba565b60405180910390f35b60007f80ac58cd000000000000000000000000000000000000000000000000000000007bffffffffffffffffffffffffffffffffffffffffffffffffffffffff1916827bffffffffffffffffffffffffffffffffffffffffffffffffffffffff191614806104af57507f5b5e139f000000000000000000000000000000000000000000000000000000007bffffffffffffffffffffffffffffffffffffffffffffffffffffffff1916827bffffffffffffffffffffffffffffffffffffffffffffffffffffffff1916145b806104bf57506104be8261118a565b5b9050919050565b60006104d260086111f4565b905090565b6060600080546104e690613069565b80601f016020809104026020016040519081016040528092919081815260200182805461051290613069565b801561055f5780601f106105345761010080835404028352916020019161055f565b820191906000526020600020905b81548152906001019060200180831161054257829003601f168201915b5050505050905090565b600061057482611202565b6004600083815260200190815260200160002060009054906101000a900473ffffffffffffffffffffffffffffffffffffffff169050919050565b60006105ba8261086f565b90508073ffffffffffffffffffffffffffffffffffffffff168373ffffffffffffffffffffffffffffffffffffffff16141561062b576040517f08c379a000000000000000000000000000000000000000000000000000000000815260040161062290612d95565b60405180910390fd5b8073ffffffffffffffffffffffffffffffffffffffff1661064a61124d565b73ffffffffffffffffffffffffffffffffffffffff16148061067957506106788161067361124d565b61105d565b5b6106b8576040517f08c379a00000000000000000000000000000000000000000000000000000000081526004016106af90612d35565b60405180910390fd5b6106c28383611255565b505050565b6106d86106d261124d565b8261130e565b610717576040517f08c379a000000000000000000000000000000000000000000000000000000000815260040161070e90612db5565b60405180910390fd5b6107228383836113a3565b505050565b6060600061075b6107378461160a565b6040516020016107479190612ae6565b6040516020818303038152906040526117b7565b9050600a805490508161076e9190613115565b9050600a81815481106107aa577f4e487b7100000000000000000000000000000000000000000000000000000000600052603260045260246000fd5b9060005260206000200180546107bf90613069565b80601f01602080910402602001604051908101604052809291908181526020018280546107eb90613069565b80156108385780601f1061080d57610100808354040283529160200191610838565b820191906000526020600020905b81548152906001019060200180831161081b57829003601f168201915b5050505050915050919050565b61086083838360405180602001604052806000815250610b9f565b505050565b6000600754905090565b6000806002600084815260200190815260200160002060009054906101000a900473ffffffffffffffffffffffffffffffffffffffff169050600073ffffffffffffffffffffffffffffffffffffffff168173ffffffffffffffffffffffffffffffffffffffff161415610918576040517f08c379a000000000000000000000000000000000000000000000000000000000815260040161090f90612d75565b60405180910390fd5b80915050919050565b60008073ffffffffffffffffffffffffffffffffffffffff168273ffffffffffffffffffffffffffffffffffffffff161415610992576040517f08c379a000000000000000000000000000000000000000000000000000000000815260040161098990612cf5565b60405180910390fd5b600360008373ffffffffffffffffffffffffffffffffffffffff1673ffffffffffffffffffffffffffffffffffffffff168152602001908152602001600020549050919050565b6060600180546109e890613069565b80601f0160208091040260200160405190810160405280929190818152602001828054610a1490613069565b8015610a615780601f10610a3657610100808354040283529160200191610a61565b820191906000526020600020905b815481529060010190602001808311610a4457829003601f168201915b5050505050905090565b610a7d610a7661124d565b83836117ea565b5050565b60606000610ab5610a918461160a565b604051602001610aa19190612a7f565b6040516020818303038152906040526117b7565b9050600b8054905081610ac89190613115565b9050600b8181548110610b04577f4e487b7100000000000000000000000000000000000000000000000000000000600052603260045260246000fd5b906000526020600020018054610b1990613069565b80601f0160208091040260200160405190810160405280929190818152602001828054610b4590613069565b8015610b925780601f10610b6757610100808354040283529160200191610b92565b820191906000526020600020905b815481529060010190602001808311610b7557829003601f168201915b5050505050915050919050565b610bb0610baa61124d565b8361130e565b610bef576040517f08c379a0000000000000000000000000000000000000000000000000000000008152600401610be690612db5565b60405180910390fd5b610bfb84848484611957565b50505050565b60606000610c35610c118461160a565b604051602001610c219190612a5d565b6040516020818303038152906040526117b7565b9050600c8054905081610c489190613115565b9050600c8181548110610c84577f4e487b7100000000000000000000000000000000000000000000000000000000600052603260045260246000fd5b906000526020600020018054610c9990613069565b80601f0160208091040260200160405190810160405280929190818152602001828054610cc590613069565b8015610d125780601f10610ce757610100808354040283529160200191610d12565b820191906000526020600020905b815481529060010190602001808311610cf557829003601f168201915b5050505050915050919050565b6060610d2a82611202565b6000600660008481526020019081526020016000208054610d4a90613069565b80601f0160208091040260200160405190810160405280929190818152602001828054610d7690613069565b8015610dc35780601f10610d9857610100808354040283529160200191610dc3565b820191906000526020600020905b815481529060010190602001808311610da657829003601f168201915b505050505090506000610dd46119b3565b9050600081511415610dea578192505050610e2d565b600082511115610e1f578082604051602001610e079291906129c3565b60405160208183030381529060405292505050610e2d565b610e28846119ca565b925050505b919050565b6000610e3e60086111f4565b90506007548110610e84576040517f08c379a0000000000000000000000000000000000000000000000000000000008152600401610e7b90612cd5565b60405180910390fd5b6000610e8f82610727565b90506000610e9c83610a81565b90506000610ea984610c01565b90506000838383604051602001610ec2939291906129e7565b60405160208183030381529060405290506000600982604051602001610ee9929190612a2e565b60405160208183030381529060405290506000610f2e83610f0984611a32565b604051602001610f1a929190612aa1565b604051602081830303815290604052611a32565b9050600081604051602001610f439190612b08565b6040516020818303038152906040529050610f926040518060400160405280601581526020017f0a2d2d2d2d2d2d2d2d2d2d2d2d2d2d2d2d2d2d2d2d00000000000000000000008152506110f1565b610f9b816110f1565b610fd96040518060400160405280601581526020017f2d2d2d2d2d2d2d2d2d2d2d2d2d2d2d2d2d2d2d2d0a00000000000000000000008152506110f1565b610fe33389611bf0565b610fed8882611c0e565b610ff76008611c82565b61101a6040518060600160405280602581526020016137be602591398933611c98565b7febb98688741ffa4c7589bf325de30cf7becb63de567842e1ccdb6cb949fdc82c338960405161104b929190612b91565b60405180910390a15050505050505050565b6000600560008473ffffffffffffffffffffffffffffffffffffffff1673ffffffffffffffffffffffffffffffffffffffff16815260200190815260200160002060008373ffffffffffffffffffffffffffffffffffffffff1673ffffffffffffffffffffffffffffffffffffffff16815260200190815260200160002060009054906101000a900460ff16905092915050565b611187816040516024016111059190612bd5565b6040516020818303038152906040527f41304fac000000000000000000000000000000000000000000000000000000007bffffffffffffffffffffffffffffffffffffffffffffffffffffffff19166020820180517bffffffffffffffffffffffffffffffffffffffffffffffffffffffff8381831617835250505050611d37565b50565b60007f01ffc9a7000000000000000000000000000000000000000000000000000000007bffffffffffffffffffffffffffffffffffffffffffffffffffffffff1916827bffffffffffffffffffffffffffffffffffffffffffffffffffffffff1916149050919050565b600081600001549050919050565b61120b81611d60565b61124a576040517f08c379a000000000000000000000000000000000000000000000000000000000815260040161124190612d75565b60405180910390fd5b50565b600033905090565b816004600083815260200190815260200160002060006101000a81548173ffffffffffffffffffffffffffffffffffffffff021916908373ffffffffffffffffffffffffffffffffffffffff160217905550808273ffffffffffffffffffffffffffffffffffffffff166112c88361086f565b73ffffffffffffffffffffffffffffffffffffffff167f8c5be1e5ebec7d5bd14f71427d1e84f3dd0314c0f7b2291e5b200ac8c7c3b92560405160405180910390a45050565b60008061131a8361086f565b90508073ffffffffffffffffffffffffffffffffffffffff168473ffffffffffffffffffffffffffffffffffffffff16148061135c575061135b818561105d565b5b8061139a57508373ffffffffffffffffffffffffffffffffffffffff1661138284610569565b73ffffffffffffffffffffffffffffffffffffffff16145b91505092915050565b8273ffffffffffffffffffffffffffffffffffffffff166113c38261086f565b73ffffffffffffffffffffffffffffffffffffffff1614611419576040517f08c379a000000000000000000000000000000000000000000000000000000000815260040161141090612c55565b60405180910390fd5b600073ffffffffffffffffffffffffffffffffffffffff168273ffffffffffffffffffffffffffffffffffffffff161415611489576040517f08c379a000000000000000000000000000000000000000000000000000000000815260040161148090612c95565b60405180910390fd5b611494838383611dcc565b61149f600082611255565b6001600360008573ffffffffffffffffffffffffffffffffffffffff1673ffffffffffffffffffffffffffffffffffffffff16815260200190815260200160002060008282546114ef9190612f7f565b925050819055506001600360008473ffffffffffffffffffffffffffffffffffffffff1673ffffffffffffffffffffffffffffffffffffffff16815260200190815260200160002060008282546115469190612e9e565b92505081905550816002600083815260200190815260200160002060006101000a81548173ffffffffffffffffffffffffffffffffffffffff021916908373ffffffffffffffffffffffffffffffffffffffff160217905550808273ffffffffffffffffffffffffffffffffffffffff168473ffffffffffffffffffffffffffffffffffffffff167fddf252ad1be2c89b69c2b068fc378daa952ba7f163c4a11628f55a4df523b3ef60405160405180910390a4611605838383611dd1565b505050565b60606000821415611652576040518060400160405280600181526020017f300000000000000000000000000000000000000000000000000000000000000081525090506117b2565b600082905060005b6000821461168457808061166d906130cc565b915050600a8261167d9190612ef4565b915061165a565b60008167ffffffffffffffff8111156116c6577f4e487b7100000000000000000000000000000000000000000000000000000000600052604160045260246000fd5b6040519080825280601f01601f1916602001820160405280156116f85781602001600182028036833780820191505090505b5090505b600085146117ab576001826117119190612f7f565b9150600a856117209190613115565b603061172c9190612e9e565b60f81b818381518110611768577f4e487b7100000000000000000000000000000000000000000000000000000000600052603260045260246000fd5b60200101907effffffffffffffffffffffffffffffffffffffffffffffffffffffffffffff1916908160001a905350600a856117a49190612ef4565b94506116fc565b8093505050505b919050565b6000816040516020016117ca91906129ac565b6040516020818303038152906040528051906020012060001c9050919050565b8173ffffffffffffffffffffffffffffffffffffffff168373ffffffffffffffffffffffffffffffffffffffff161415611859576040517f08c379a000000000000000000000000000000000000000000000000000000000815260040161185090612cb5565b60405180910390fd5b80600560008573ffffffffffffffffffffffffffffffffffffffff1673ffffffffffffffffffffffffffffffffffffffff16815260200190815260200160002060008473ffffffffffffffffffffffffffffffffffffffff1673ffffffffffffffffffffffffffffffffffffffff16815260200190815260200160002060006101000a81548160ff0219169083151502179055508173ffffffffffffffffffffffffffffffffffffffff168373ffffffffffffffffffffffffffffffffffffffff167f17307eab39ab6107e8899845ad3d59bd9653f200f220920489ca2b5937696c318360405161194a9190612bba565b60405180910390a3505050565b6119628484846113a3565b61196e84848484611dd6565b6119ad576040517f08c379a00000000000000000000000000000000000000000000000000000000081526004016119a490612c35565b60405180910390fd5b50505050565b606060405180602001604052806000815250905090565b60606119d582611202565b60006119df6119b3565b905060008151116119ff5760405180602001604052806000815250611a2a565b80611a098461160a565b604051602001611a1a9291906129c3565b6040516020818303038152906040525b915050919050565b60606000825190506000811415611a5b5760405180602001604052806000815250915050611beb565b60006003600283611a6c9190612e9e565b611a769190612ef4565b6004611a829190612f25565b90506000602082611a939190612e9e565b67ffffffffffffffff811115611ad2577f4e487b7100000000000000000000000000000000000000000000000000000000600052604160045260246000fd5b6040519080825280601f01601f191660200182016040528015611b045781602001600182028036833780820191505090505b50905060006040518060600160405280604081526020016137e3604091399050600181016020830160005b86811015611ba85760038101905062ffffff818a015116603f8160121c168401518060081b905060ff603f83600c1c1686015116810190508060081b905060ff603f8360061c1686015116810190508060081b905060ff603f831686015116810190508060e01b90508084526004840193505050611b2f565b506003860660018114611bc25760028114611bd257611bdd565b613d3d60f01b6002830352611bdd565b603d60f81b60018303525b508484525050819450505050505b919050565b611c0a828260405180602001604052806000815250611f6d565b5050565b611c1782611d60565b611c56576040517f08c379a0000000000000000000000000000000000000000000000000000000008152600401611c4d90612d15565b60405180910390fd5b80600660008481526020019081526020016000209080519060200190611c7d9291906121c5565b505050565b6001816000016000828254019250508190555050565b611d32838383604051602401611cb093929190612bf7565b6040516020818303038152906040527fe3849f79000000000000000000000000000000000000000000000000000000007bffffffffffffffffffffffffffffffffffffffffffffffffffffffff19166020820180517bffffffffffffffffffffffffffffffffffffffffffffffffffffffff8381831617835250505050611d37565b505050565b60008151905060006a636f6e736f6c652e6c6f679050602083016000808483855afa5050505050565b60008073ffffffffffffffffffffffffffffffffffffffff166002600084815260200190815260200160002060009054906101000a900473ffffffffffffffffffffffffffffffffffffffff1673ffffffffffffffffffffffffffffffffffffffff1614159050919050565b505050565b505050565b6000611df78473ffffffffffffffffffffffffffffffffffffffff16611fc8565b15611f60578373ffffffffffffffffffffffffffffffffffffffff1663150b7a02611e2061124d565b8786866040518563ffffffff1660e01b8152600401611e429493929190612b45565b602060405180830381600087803b158015611e5c57600080fd5b505af1925050508015611e8d57506040513d601f19601f82011682018060405250810190611e8a9190612509565b60015b611f10573d8060008114611ebd576040519150601f19603f3d011682016040523d82523d6000602084013e611ec2565b606091505b50600081511415611f08576040517f08c379a0000000000000000000000000000000000000000000000000000000008152600401611eff90612c35565b60405180910390fd5b805181602001fd5b63150b7a0260e01b7bffffffffffffffffffffffffffffffffffffffffffffffffffffffff1916817bffffffffffffffffffffffffffffffffffffffffffffffffffffffff191614915050611f65565b600190505b949350505050565b611f778383611feb565b611f846000848484611dd6565b611fc3576040517f08c379a0000000000000000000000000000000000000000000000000000000008152600401611fba90612c35565b60405180910390fd5b505050565b6000808273ffffffffffffffffffffffffffffffffffffffff163b119050919050565b600073ffffffffffffffffffffffffffffffffffffffff168273ffffffffffffffffffffffffffffffffffffffff16141561205b576040517f08c379a000000000000000000000000000000000000000000000000000000000815260040161205290612d55565b60405180910390fd5b61206481611d60565b156120a4576040517f08c379a000000000000000000000000000000000000000000000000000000000815260040161209b90612c75565b60405180910390fd5b6120b060008383611dcc565b6001600360008473ffffffffffffffffffffffffffffffffffffffff1673ffffffffffffffffffffffffffffffffffffffff16815260200190815260200160002060008282546121009190612e9e565b92505081905550816002600083815260200190815260200160002060006101000a81548173ffffffffffffffffffffffffffffffffffffffff021916908373ffffffffffffffffffffffffffffffffffffffff160217905550808273ffffffffffffffffffffffffffffffffffffffff16600073ffffffffffffffffffffffffffffffffffffffff167fddf252ad1be2c89b69c2b068fc378daa952ba7f163c4a11628f55a4df523b3ef60405160405180910390a46121c160008383611dd1565b5050565b8280546121d190613069565b90600052602060002090601f0160209004810192826121f3576000855561223a565b82601f1061220c57805160ff191683800117855561223a565b8280016001018555821561223a579182015b8281111561223957825182559160200191906001019061221e565b5b509050612247919061224b565b5090565b5b8082111561226457600081600090555060010161224c565b5090565b600061227b61227684612e15565b612df0565b90508281526020810184848401111561229357600080fd5b61229e848285613027565b509392505050565b6000813590506122b581613761565b92915050565b6000813590506122ca81613778565b92915050565b6000813590506122df8161378f565b92915050565b6000815190506122f48161378f565b92915050565b600082601f83011261230b57600080fd5b813561231b848260208601612268565b91505092915050565b600081359050612333816137a6565b92915050565b60006020828403121561234b57600080fd5b6000612359848285016122a6565b91505092915050565b6000806040838503121561237557600080fd5b6000612383858286016122a6565b9250506020612394858286016122a6565b9150509250929050565b6000806000606084860312156123b357600080fd5b60006123c1868287016122a6565b93505060206123d2868287016122a6565b92505060406123e386828701612324565b9150509250925092565b6000806000806080858703121561240357600080fd5b6000612411878288016122a6565b9450506020612422878288016122a6565b935050604061243387828801612324565b925050606085013567ffffffffffffffff81111561245057600080fd5b61245c878288016122fa565b91505092959194509250565b6000806040838503121561247b57600080fd5b6000612489858286016122a6565b925050602061249a858286016122bb565b9150509250929050565b600080604083850312156124b757600080fd5b60006124c5858286016122a6565b92505060206124d685828601612324565b9150509250929050565b6000602082840312156124f257600080fd5b6000612500848285016122d0565b91505092915050565b60006020828403121561251b57600080fd5b6000612529848285016122e5565b91505092915050565b60006020828403121561254457600080fd5b600061255284828501612324565b91505092915050565b61256481612fb3565b82525050565b61257381612fc5565b82525050565b600061258482612e5b565b61258e8185612e71565b935061259e818560208601613036565b6125a781613202565b840191505092915050565b60006125bd82612e66565b6125c78185612e82565b93506125d7818560208601613036565b6125e081613202565b840191505092915050565b60006125f682612e66565b6126008185612e93565b9350612610818560208601613036565b80840191505092915050565b6000815461262981613069565b6126338186612e93565b9450600182166000811461264e576001811461265f57612692565b60ff19831686528186019350612692565b61266885612e46565b60005b8381101561268a5781548189015260018201915060208101905061266b565b838801955050505b50505092915050565b60006126a8603283612e82565b91506126b382613213565b604082019050919050565b60006126cb602583612e82565b91506126d682613262565b604082019050919050565b60006126ee601c83612e82565b91506126f9826132b1565b602082019050919050565b6000612711600a83612e93565b915061271c826132da565b600a82019050919050565b6000612734602483612e82565b915061273f82613303565b604082019050919050565b6000612757601983612e82565b915061276282613352565b602082019050919050565b600061277a606383612e93565b91506127858261337b565b606382019050919050565b600061279d600b83612e93565b91506127a882613416565b600b82019050919050565b60006127c0602f83612e82565b91506127cb8261343f565b604082019050919050565b60006127e3600d83612e93565b91506127ee8261348e565b600d82019050919050565b6000612806602983612e82565b9150612811826134b7565b604082019050919050565b6000612829602e83612e82565b915061283482613506565b604082019050919050565b600061284c600283612e93565b915061285782613555565b600282019050919050565b600061286f603e83612e82565b915061287a8261357e565b604082019050919050565b6000612892602083612e82565b915061289d826135cd565b602082019050919050565b60006128b5600a83612e93565b91506128c0826135f6565b600a82019050919050565b60006128d8601883612e82565b91506128e38261361f565b602082019050919050565b60006128fb602183612e82565b915061290682613648565b604082019050919050565b600061291e600a83612e93565b915061292982613697565b600a82019050919050565b6000612941601d83612e93565b915061294c826136c0565b601d82019050919050565b6000612964600183612e93565b915061296f826136e9565b600182019050919050565b6000612987602e83612e82565b915061299282613712565b604082019050919050565b6129a68161301d565b82525050565b60006129b882846125eb565b915081905092915050565b60006129cf82856125eb565b91506129db82846125eb565b91508190509392505050565b60006129f382866125eb565b91506129fe82612957565b9150612a0a82856125eb565b9150612a1582612957565b9150612a2182846125eb565b9150819050949350505050565b6000612a3a828561261c565b9150612a4682846125eb565b9150612a51826127d6565b91508190509392505050565b6000612a6882612704565b9150612a7482846125eb565b915081905092915050565b6000612a8a82612790565b9150612a9682846125eb565b915081905092915050565b6000612aac826128a8565b9150612ab882856125eb565b9150612ac38261276d565b9150612acf82846125eb565b9150612ada8261283f565b91508190509392505050565b6000612af182612911565b9150612afd82846125eb565b915081905092915050565b6000612b1382612934565b9150612b1f82846125eb565b915081905092915050565b6000602082019050612b3f600083018461255b565b92915050565b6000608082019050612b5a600083018761255b565b612b67602083018661255b565b612b74604083018561299d565b8181036060830152612b868184612579565b905095945050505050565b6000604082019050612ba6600083018561255b565b612bb3602083018461299d565b9392505050565b6000602082019050612bcf600083018461256a565b92915050565b60006020820190508181036000830152612bef81846125b2565b905092915050565b60006060820190508181036000830152612c1181866125b2565b9050612c20602083018561299d565b612c2d604083018461255b565b949350505050565b60006020820190508181036000830152612c4e8161269b565b9050919050565b60006020820190508181036000830152612c6e816126be565b9050919050565b60006020820190508181036000830152612c8e816126e1565b9050919050565b60006020820190508181036000830152612cae81612727565b9050919050565b60006020820190508181036000830152612cce8161274a565b9050919050565b60006020820190508181036000830152612cee816127b3565b9050919050565b60006020820190508181036000830152612d0e816127f9565b9050919050565b60006020820190508181036000830152612d2e8161281c565b9050919050565b60006020820190508181036000830152612d4e81612862565b9050919050565b60006020820190508181036000830152612d6e81612885565b9050919050565b60006020820190508181036000830152612d8e816128cb565b9050919050565b60006020820190508181036000830152612dae816128ee565b9050919050565b60006020820190508181036000830152612dce8161297a565b9050919050565b6000602082019050612dea600083018461299d565b92915050565b6000612dfa612e0b565b9050612e06828261309b565b919050565b6000604051905090565b600067ffffffffffffffff821115612e3057612e2f6131d3565b5b612e3982613202565b9050602081019050919050565b60008190508160005260206000209050919050565b600081519050919050565b600081519050919050565b600082825260208201905092915050565b600082825260208201905092915050565b600081905092915050565b6000612ea98261301d565b9150612eb48361301d565b9250827fffffffffffffffffffffffffffffffffffffffffffffffffffffffffffffffff03821115612ee957612ee8613146565b5b828201905092915050565b6000612eff8261301d565b9150612f0a8361301d565b925082612f1a57612f19613175565b5b828204905092915050565b6000612f308261301d565b9150612f3b8361301d565b9250817fffffffffffffffffffffffffffffffffffffffffffffffffffffffffffffffff0483118215151615612f7457612f73613146565b5b828202905092915050565b6000612f8a8261301d565b9150612f958361301d565b925082821015612fa857612fa7613146565b5b828203905092915050565b6000612fbe82612ffd565b9050919050565b60008115159050919050565b60007fffffffff0000000000000000000000000000000000000000000000000000000082169050919050565b600073ffffffffffffffffffffffffffffffffffffffff82169050919050565b6000819050919050565b82818337600083830152505050565b60005b83811015613054578082015181840152602081019050613039565b83811115613063576000848401525b50505050565b6000600282049050600182168061308157607f821691505b60208210811415613095576130946131a4565b5b50919050565b6130a482613202565b810181811067ffffffffffffffff821117156130c3576130c26131d3565b5b80604052505050565b60006130d78261301d565b91507fffffffffffffffffffffffffffffffffffffffffffffffffffffffffffffffff82141561310a57613109613146565b5b600182019050919050565b60006131208261301d565b915061312b8361301d565b92508261313b5761313a613175565b5b828206905092915050565b7f4e487b7100000000000000000000000000000000000000000000000000000000600052601160045260246000fd5b7f4e487b7100000000000000000000000000000000000000000000000000000000600052601260045260246000fd5b7f4e487b7100000000000000000000000000000000000000000000000000000000600052602260045260246000fd5b7f4e487b7100000000000000000000000000000000000000000000000000000000600052604160045260246000fd5b6000601f19601f8301169050919050565b7f4552433732313a207472616e7366657220746f206e6f6e20455243373231526560008201527f63656976657220696d706c656d656e7465720000000000000000000000000000602082015250565b7f4552433732313a207472616e736665722066726f6d20696e636f72726563742060008201527f6f776e6572000000000000000000000000000000000000000000000000000000602082015250565b7f4552433732313a20746f6b656e20616c7265616479206d696e74656400000000600082015250565b7f54484952445f574f524400000000000000000000000000000000000000000000600082015250565b7f4552433732313a207472616e7366657220746f20746865207a65726f2061646460008201527f7265737300000000000000000000000000000000000000000000000000000000602082015250565b7f4552433732313a20617070726f766520746f2063616c6c657200000000000000600082015250565b7f222c20226465736372697074696f6e223a20224120686967686c79206163636c60008201527f61696d656420636f6c6c656374696f6e206f6620737175617265732e222c202260208201527f696d616765223a2022646174613a696d6167652f7376672b786d6c3b6261736560408201527f36342c0000000000000000000000000000000000000000000000000000000000606082015250565b7f5345434f4e445f574f5244000000000000000000000000000000000000000000600082015250565b7f4d617820737570706c7920726561636865642e204e6f206d6f7265204e46547360008201527f2063616e206265206d696e7465642e0000000000000000000000000000000000602082015250565b7f3c2f746578743e3c2f7376673e00000000000000000000000000000000000000600082015250565b7f4552433732313a2061646472657373207a65726f206973206e6f74206120766160008201527f6c6964206f776e65720000000000000000000000000000000000000000000000602082015250565b7f45524337323155524953746f726167653a2055524920736574206f66206e6f6e60008201527f6578697374656e7420746f6b656e000000000000000000000000000000000000602082015250565b7f227d000000000000000000000000000000000000000000000000000000000000600082015250565b7f4552433732313a20617070726f76652063616c6c6572206973206e6f7420746f60008201527f6b656e206f776e6572206e6f7220617070726f76656420666f7220616c6c0000602082015250565b7f4552433732313a206d696e7420746f20746865207a65726f2061646472657373600082015250565b7f7b226e616d65223a202200000000000000000000000000000000000000000000600082015250565b7f4552433732313a20696e76616c696420746f6b656e2049440000000000000000600082015250565b7f4552433732313a20617070726f76616c20746f2063757272656e74206f776e6560008201527f7200000000000000000000000000000000000000000000000000000000000000602082015250565b7f46495253545f574f524400000000000000000000000000000000000000000000600082015250565b7f646174613a6170706c69636174696f6e2f6a736f6e3b6261736536342c000000600082015250565b7f2d00000000000000000000000000000000000000000000000000000000000000600082015250565b7f4552433732313a2063616c6c6572206973206e6f7420746f6b656e206f776e6560008201527f72206e6f7220617070726f766564000000000000000000000000000000000000602082015250565b61376a81612fb3565b811461377557600080fd5b50565b61378181612fc5565b811461378c57600080fd5b50565b61379881612fd1565b81146137a357600080fd5b50565b6137af8161301d565b81146137ba57600080fd5b5056fe416e204e465420772f20494420257320686173206265656e206d696e74656420746f2025734142434445464748494a4b4c4d4e4f505152535455565758595a6162636465666768696a6b6c6d6e6f707172737475767778797a303132333435363738392b2fa26469706673582212209edc5eb1cb4f03f141ecd10b5d9b8cd64a8d4d88f9b3364f864f810eb90dfd8564736f6c634300080100333c73766720786d6c6e733d27687474703a2f2f7777772e77332e6f72672f323030302f73766727207072657365727665417370656374526174696f3d27784d696e594d696e206d656574272076696577426f783d273020302033353020333530273e3c7374796c653e2e62617365207b2066696c6c3a2077686974653b20666f6e742d66616d696c793a2073657269663b20666f6e742d73697a653a20323470783b207d3c2f7374796c653e3c726563742077696474683d273130302527206865696768743d2731303025272066696c6c3d27626c61636b27202f3e3c7465787420783d273530252720793d273530252720636c6173733d27626173652720646f6d696e616e742d626173656c696e653d276d6964646c652720746578742d616e63686f723d276d6964646c65273e",
  "linkReferences": {},
  "deployedLinkReferences": {}
}